S01600004469676974616C436F756E7465722E7372656370
S11300000C942B000C9448000C9448000C94480069
S11300100C9448000C9448000C9448000C9448003C
S11300200C9448000C9448000C94BC010C944800B7
S11300300C9448000C9448000C9448000C9448001C
S11300400C9448000C9448000C9448000C9448000C
S11300500C944800030211241FBECFE5D8E0DEBF94
S1130060CDBF20E0A0E6B0E001C01D92A83EB207DB
S1130070E1F710E0C6E5D0E004C02297FE010E943B
S11300803E02C435D107C9F70E94E0010C94420234
S11300900C94000020916400E22FF0E0E05AFF4F3E
S11300A0808180958BBB81E090E0022E02C0880F96
S11300B0991F0A94E2F7809588BB2F5F243018F4C7
S11300C02093640008951092640008958FED9EE2D9
S11300D00197F1F700C0000008958430910521F1E3
S11300E050F481309105A9F1B0F082309105B1F05E
S11300F0039761F516C087309105F9F030F4853027
S11301009105A9F0069711F515C088309105C1F045
S11301100997E1F418C02FE330E01DC02BE530E06F
S11301201AC02FE430E017C026E630E014C02DE6F4
S113013030E011C02DE730E00EC027E030E00BC006
S11301402FE730E008C02FE630E005C029E730E0B3
S113015002C026E030E0822F932F0895EF92FF92A1
S11301600F931F93CF93DF93C091E600D091E700E4
S11301700AE010E0CE01B8010E9414027B010E9443
S11301806D0080936300C701B8010E9414020E94AD
S11301906D0080936200CE0164E670E00E94140258
S11301A0CB01B8010E9414020E946D00809361008B
S11301B0CE0168EE73E00E941402CB01B8010E94E4
S11301C014020E946D00809360002196D093E70092
S11301D0C093E600DF91CF911F910F91FF90EF90B4
S11301E008951092650080E090E0FC01EE0FFF1F7F
S11301F0EE0FFF1FEE0FFF1FEA59FF4F118210820F
S1130200138212821582148217821682019680311B
S1130210910559F7089582E089BF83E083BF8AEF8F
S11302208CBF78940895FC0184819581009781F0B6
S1130230019795838483892B59F48681978101964C
S11302409783868382819381009711F095838483B9
S11302500895CF9380916500882391F0C0E08C2F9E
S113026090E0880F991F880F991F880F991F8A594A
S11302709F4F0E941301CF5F80916500C81778F3E8
S1130280CF9108952091650030E02F5F3F4F81E0CA
S1130290203131050CF480E00895CF92DF92EF9283
S11302A0FF92CF93DF93EC016A017B010E9442012C
S11302B081111BC0F89480916500E82FF0E0EE0FE7
S11302C0FF1FEE0FFF1FEE0FFF1FEA59FF4FD183F1
S11302D0C083D382C282D582C482178216828F5F82
S11302E080936500789481E001C080E0DF91CF9134
S11302F0FF90EF90DF90CF900895CF93DF93EC01C0
S11303008E819F81892B61F0E881F9810995F894A8
S11303108E819F8101979F838E83789481E001C0B1
S113032080E0DF91CF9108951F93CF93DF930E94D4
S11303300B01809165008823D9F0C0E010E0D12F33
S113034011C08C2F90E0880F991F880F991F880F78
S1130350991F8A599F4F0E947D01811102C0CF5F6E
S113036001C0C12F80916500C81758F3CD2FFCCF71
S1130370DF91CF911F9108951F920F920FB60F92A4
S113038011242F933F934F935F936F937F938F9396
S11303909F93AF93BF93EF93FF930E942901FF9123
S11303A0EF91BF91AF919F918F917F916F915F91E9
S11303B04F913F912F910F900FBE0F901F90189562
S11303C08FEF8ABB87BB1BBA0E94F10045E050E067
S11303D060E070E086E690E00E944D0144E050E069
S11303E060E070E08AE490E00E944D0148EE53E042
S11303F060E070E08EEA90E00E944D010E9494015A
S113040080E090E00895E6E6F0E086EE90E0118268
S113041010821382128215821482178216823896F1
S1130420E817F907A1F7089597FB072E16F400942F
S113043007D077FD09D00E94280207FC05D03EF4BE
S1130440909581959F4F0895709561957F4F08957C
S1130450AA1BBB1B51E107C0AA1FBB1FA617B707E6
S113046010F0A61BB70B881F991F5A95A9F7809502
S11304709095BC01CD010895EE0FFF1F0590F491F6
S10B0480E02D0994F894FFCF6C
S9030000FC
