:100000000C942B000C9448000C9448000C9448006D
:100010000C9448000C9448000C9448000C94480040
:100020000C9448000C9448000C9429010C9448004E
:100030000C9448000C9448000C9448000C94480020
:100040000C9448000C9448000C9448000C94480010
:100050000C944800760111241FBECFE5D8E0DEBF26
:10006000CDBF20E0A0E6B0E001C01D92A13EB207E6
:10007000E1F710E0C6E5D0E004C02297FE010E943F
:100080008901C435D107C9F70E944D010C948D0137
:100090000C9400009BB381E089278BBB08959BB330
:1000A00082E089278BBB08959BB384E089278BBBB3
:1000B00008959BB388E089278BBB08951092600058
:1000C00080E090E0FC01EE0FFF1FEE0FFF1FEE0F30
:1000D000FF1FEF59FF4F1182108213821282158287
:1000E00014821782168201968031910559F708957E
:1000F00082E089BF83E083BF8AEF8CBF7894089544
:10010000FC0184819581009781F001979583848318
:10011000892B59F486819781019697838683828102
:100120009381009711F0958384830895CF938091F4
:100130006000882391F0C0E08C2F90E0880F991F19
:10014000880F991F880F991F8F599F4F0E94800019
:10015000CF5F80916000C81778F3CF910895209108
:10016000600030E02F5F3F4F81E0203131050CF41B
:1001700080E00895CF92DF92EF92FF92CF93DF93CA
:10018000EC016A017B010E94AF0081111BC0F89451
:1001900080916000E82FF0E0EE0FFF1FEE0FFF1FD1
:1001A000EE0FFF1FEF59FF4FD183C083D382C2826E
:1001B000D582C482178216828F5F80936000789404
:1001C00081E001C080E0DF91CF91FF90EF90DF9060
:1001D000CF900895CF93DF93EC018E819F81892B7F
:1001E00061F0E881F9810995F8948E819F810197EA
:1001F0009F838E83789481E001C080E0DF91CF916E
:1002000008951F93CF93DF930E9478008091600040
:100210008823D9F0C0E010E0D12F11C08C2F90E0DE
:10022000880F991F880F991F880F991F8F599F4F0B
:100230000E94EA00811102C0CF5F01C0C12F8091EE
:100240006000C81758F3CD2FFCCFDF91CF911F91DD
:1002500008951F920F920FB60F9211242F933F9380
:100260004F935F936F937F938F939F93AF93BF93BE
:10027000EF93FF930E949600FF91EF91BF91AF9192
:100280009F918F917F916F915F914F913F912F91AE
:100290000F900FBE0F901F9018958FEF8ABB0E9492
:1002A0005E0044E150E060E070E08AE490E00E948B
:1002B000BA0044E150E060E070E08FE490E00E941A
:1002C000BA0045E050E060E070E084E590E00E9414
:1002D000BA004AE050E060E070E089E590E00E94FA
:1002E000BA000E94010180E090E00895E1E6F0E0AC
:1002F00081EE90E0118210821382128215821482A4
:10030000178216823896E817F907A1F70895EE0FBD
:0E031000FF1F0590F491E02D0994F894FFCFA3
:00000001FF
